{
  "contractName": "ERC20Mintable",
  "abi": [
    {
      "constant": false,
      "inputs": [
        {
          "name": "spender",
          "type": "address"
        },
        {
          "name": "value",
          "type": "uint256"
        }
      ],
      "name": "approve",
      "outputs": [
        {
          "name": "",
          "type": "bool"
        }
      ],
      "payable": false,
      "stateMutability": "nonpayable",
      "type": "function"
    },
    {
      "constant": true,
      "inputs": [],
      "name": "totalSupply",
      "outputs": [
        {
          "name": "",
          "type": "uint256"
        }
      ],
      "payable": false,
      "stateMutability": "view",
      "type": "function"
    },
    {
      "constant": false,
      "inputs": [
        {
          "name": "sender",
          "type": "address"
        },
        {
          "name": "recipient",
          "type": "address"
        },
        {
          "name": "amount",
          "type": "uint256"
        }
      ],
      "name": "transferFrom",
      "outputs": [
        {
          "name": "",
          "type": "bool"
        }
      ],
      "payable": false,
      "stateMutability": "nonpayable",
      "type": "function"
    },
    {
      "constant": false,
      "inputs": [
        {
          "name": "spender",
          "type": "address"
        },
        {
          "name": "addedValue",
          "type": "uint256"
        }
      ],
      "name": "increaseAllowance",
      "outputs": [
        {
          "name": "",
          "type": "bool"
        }
      ],
      "payable": false,
      "stateMutability": "nonpayable",
      "type": "function"
    },
    {
      "constant": true,
      "inputs": [
        {
          "name": "account",
          "type": "address"
        }
      ],
      "name": "balanceOf",
      "outputs": [
        {
          "name": "",
          "type": "uint256"
        }
      ],
      "payable": false,
      "stateMutability": "view",
      "type": "function"
    },
    {
      "constant": false,
      "inputs": [
        {
          "name": "account",
          "type": "address"
        }
      ],
      "name": "addMinter",
      "outputs": [],
      "payable": false,
      "stateMutability": "nonpayable",
      "type": "function"
    },
    {
      "constant": false,
      "inputs": [],
      "name": "renounceMinter",
      "outputs": [],
      "payable": false,
      "stateMutability": "nonpayable",
      "type": "function"
    },
    {
      "constant": false,
      "inputs": [
        {
          "name": "spender",
          "type": "address"
        },
        {
          "name": "subtractedValue",
          "type": "uint256"
        }
      ],
      "name": "decreaseAllowance",
      "outputs": [
        {
          "name": "",
          "type": "bool"
        }
      ],
      "payable": false,
      "stateMutability": "nonpayable",
      "type": "function"
    },
    {
      "constant": false,
      "inputs": [
        {
          "name": "recipient",
          "type": "address"
        },
        {
          "name": "amount",
          "type": "uint256"
        }
      ],
      "name": "transfer",
      "outputs": [
        {
          "name": "",
          "type": "bool"
        }
      ],
      "payable": false,
      "stateMutability": "nonpayable",
      "type": "function"
    },
    {
      "constant": true,
      "inputs": [
        {
          "name": "account",
          "type": "address"
        }
      ],
      "name": "isMinter",
      "outputs": [
        {
          "name": "",
          "type": "bool"
        }
      ],
      "payable": false,
      "stateMutability": "view",
      "type": "function"
    },
    {
      "constant": true,
      "inputs": [
        {
          "name": "amount",
          "type": "uint256"
        }
      ],
      "name": "computeTxFee",
      "outputs": [
        {
          "name": "",
          "type": "uint256"
        }
      ],
      "payable": false,
      "stateMutability": "view",
      "type": "function"
    },
    {
      "constant": true,
      "inputs": [],
      "name": "getFee",
      "outputs": [
        {
          "name": "",
          "type": "uint256"
        }
      ],
      "payable": false,
      "stateMutability": "view",
      "type": "function"
    },
    {
      "constant": true,
      "inputs": [
        {
          "name": "owner",
          "type": "address"
        },
        {
          "name": "spender",
          "type": "address"
        }
      ],
      "name": "allowance",
      "outputs": [
        {
          "name": "",
          "type": "uint256"
        }
      ],
      "payable": false,
      "stateMutability": "view",
      "type": "function"
    },
    {
      "anonymous": false,
      "inputs": [
        {
          "indexed": true,
          "name": "account",
          "type": "address"
        }
      ],
      "name": "MinterAdded",
      "type": "event"
    },
    {
      "anonymous": false,
      "inputs": [
        {
          "indexed": true,
          "name": "account",
          "type": "address"
        }
      ],
      "name": "MinterRemoved",
      "type": "event"
    },
    {
      "anonymous": false,
      "inputs": [
        {
          "indexed": true,
          "name": "from",
          "type": "address"
        },
        {
          "indexed": true,
          "name": "to",
          "type": "address"
        },
        {
          "indexed": false,
          "name": "value",
          "type": "uint256"
        }
      ],
      "name": "Transfer",
      "type": "event"
    },
    {
      "anonymous": false,
      "inputs": [
        {
          "indexed": true,
          "name": "owner",
          "type": "address"
        },
        {
          "indexed": true,
          "name": "spender",
          "type": "address"
        },
        {
          "indexed": false,
          "name": "value",
          "type": "uint256"
        }
      ],
      "name": "Approval",
      "type": "event"
    },
    {
      "constant": false,
      "inputs": [
        {
          "name": "account",
          "type": "address"
        },
        {
          "name": "amount",
          "type": "uint256"
        }
      ],
      "name": "mint",
      "outputs": [
        {
          "name": "",
          "type": "bool"
        }
      ],
      "payable": false,
      "stateMutability": "nonpayable",
      "type": "function"
    }
  ],
  "bytecode": "0x60806040527332e3740e7f63333f4f9da21673d04f0f21f840be600360006101000a81548173ffffffffffffffffffffffffffffffffffffffff021916908373ffffffffffffffffffffffffffffffffffffffff16021790555065b5e620f48000600455670de0b6b3a764000060055562000089336200008f640100000000026401000000009004565b6200030c565b620000b3816006620000f964010000000002620019c7179091906401000000009004565b8073ffffffffffffffffffffffffffffffffffffffff167f6ae172837ea30b801fbfcdd4108aa1d5bf8ff775444fd70256b44e6bf3dfc3f660405160405180910390a250565b620001148282620001e8640100000000026401000000009004565b1515156200018a576040517f08c379a000000000000000000000000000000000000000000000000000000000815260040180806020018281038252601f8152602001807f526f6c65733a206163636f756e7420616c72656164792068617320726f6c650081525060200191505060405180910390fd5b60018260000160008373ffffffffffffffffffffffffffffffffffffffff1673ffffffffffffffffffffffffffffffffffffffff16815260200190815260200160002060006101000a81548160ff0219169083151502179055505050565b60008073ffffffffffffffffffffffffffffffffffffffff168273ffffffffffffffffffffffffffffffffffffffff1614151515620002b5576040517f08c379a00000000000000000000000000000000000000000000000000000000081526004018080602001828103825260228152602001807f526f6c65733a206163636f756e7420697320746865207a65726f20616464726581526020017f737300000000000000000000000000000000000000000000000000000000000081525060400191505060405180910390fd5b8260000160008373ffffffffffffffffffffffffffffffffffffffff1673ffffffffffffffffffffffffffffffffffffffff16815260200190815260200160002060009054906101000a900460ff16905092915050565b611bd2806200031c6000396000f3fe6080604052600436106100d0576000357c0100000000000000000000000000000000000000000000000000000000900463ffffffff168063095ea7b3146100d557806318160ddd1461014857806323b872dd14610173578063395093511461020657806340c10f191461027957806370a08231146102ec578063983b2d561461035157806398650275146103a2578063a457c2d7146103b9578063a9059cbb1461042c578063aa271e1a1461049f578063c2eaaeb314610508578063ced72f8714610557578063dd62ed3e14610582575b600080fd5b3480156100e157600080fd5b5061012e600480360360408110156100f857600080fd5b81019080803573ffffffffffffffffffffffffffffffffffffffff16906020019092919080359060200190929190505050610607565b604051808215151515815260200191505060405180910390f35b34801561015457600080fd5b5061015d61061e565b6040518082815260200191505060405180910390f35b34801561017f57600080fd5b506101ec6004803603606081101561019657600080fd5b81019080803573ffffffffffffffffffffffffffffffffffffffff169060200190929190803573ffffffffffffffffffffffffffffffffffffffff16906020019092919080359060200190929190505050610628565b604051808215151515815260200191505060405180910390f35b34801561021257600080fd5b5061025f6004803603604081101561022957600080fd5b81019080803573ffffffffffffffffffffffffffffffffffffffff169060200190929190803590602001909291905050506106d9565b604051808215151515815260200191505060405180910390f35b34801561028557600080fd5b506102d26004803603604081101561029c57600080fd5b81019080803573ffffffffffffffffffffffffffffffffffffffff1690602001909291908035906020019092919050505061077e565b604051808215151515815260200191505060405180910390f35b3480156102f857600080fd5b5061033b6004803603602081101561030f57600080fd5b81019080803573ffffffffffffffffffffffffffffffffffffffff169060200190929190505050610837565b6040518082815260200191505060405180910390f35b34801561035d57600080fd5b506103a06004803603602081101561037457600080fd5b81019080803573ffffffffffffffffffffffffffffffffffffffff16906020019092919050505061087f565b005b3480156103ae57600080fd5b506103b761092e565b005b3480156103c557600080fd5b50610412600480360360408110156103dc57600080fd5b81019080803573ffffffffffffffffffffffffffffffffffffffff16906020019092919080359060200190929190505050610939565b604051808215151515815260200191505060405180910390f35b34801561043857600080fd5b506104856004803603604081101561044f57600080fd5b81019080803573ffffffffffffffffffffffffffffffffffffffff169060200190929190803590602001909291905050506109de565b604051808215151515815260200191505060405180910390f35b3480156104ab57600080fd5b506104ee600480360360208110156104c257600080fd5b81019080803573ffffffffffffffffffffffffffffffffffffffff1690602001909291905050506109f5565b604051808215151515815260200191505060405180910390f35b34801561051457600080fd5b506105416004803603602081101561052b57600080fd5b8101908080359060200190929190505050610a12565b6040518082815260200191505060405180910390f35b34801561056357600080fd5b5061056c610a72565b6040518082815260200191505060405180910390f35b34801561058e57600080fd5b506105f1600480360360408110156105a557600080fd5b81019080803573ffffffffffffffffffffffffffffffffffffffff169060200190929190803573ffffffffffffffffffffffffffffffffffffffff169060200190929190505050610a7c565b6040518082815260200191505060405180910390f35b6000610614338484610b03565b6001905092915050565b6000600254905090565b6000610635848484610d84565b6106ce84336106c985600160008a73ffffffffffffffffffffffffffffffffffffffff1673ffffffffffffffffffffffffffffffffffffffff16815260200190815260200160002060003373ffffffffffffffffffffffffffffffffffffffff1673ffffffffffffffffffffffffffffffffffffffff168152602001908152602001600020546113be90919063ffffffff16565b610b03565b600190509392505050565b6000610774338461076f85600160003373ffffffffffffffffffffffffffffffffffffffff1673ffffffffffffffffffffffffffffffffffffffff16815260200190815260200160002060008973ffffffffffffffffffffffffffffffffffffffff1673ffffffffffffffffffffffffffffffffffffffff1681526020019081526020016000205461144990919063ffffffff16565b610b03565b6001905092915050565b6000610789336109f5565b1515610823576040517f08c379a00000000000000000000000000000000000000000000000000000000081526004018080602001828103825260308152602001807f4d696e746572526f6c653a2063616c6c657220646f6573206e6f74206861766581526020017f20746865204d696e74657220726f6c650000000000000000000000000000000081525060400191505060405180910390fd5b61082d83836114d3565b6001905092915050565b60008060008373ffffffffffffffffffffffffffffffffffffffff1673ffffffffffffffffffffffffffffffffffffffff168152602001908152602001600020549050919050565b610888336109f5565b1515610922576040517f08c379a00000000000000000000000000000000000000000000000000000000081526004018080602001828103825260308152602001807f4d696e746572526f6c653a2063616c6c657220646f6573206e6f74206861766581526020017f20746865204d696e74657220726f6c650000000000000000000000000000000081525060400191505060405180910390fd5b61092b81611690565b50565b610937336116ea565b565b60006109d433846109cf85600160003373ffffffffffffffffffffffffffffffffffffffff1673ffffffffffffffffffffffffffffffffffffffff16815260200190815260200160002060008973ffffffffffffffffffffffffffffffffffffffff1673ffffffffffffffffffffffffffffffffffffffff168152602001908152602001600020546113be90919063ffffffff16565b610b03565b6001905092915050565b60006109eb338484610d84565b6001905092915050565b6000610a0b82600661174490919063ffffffff16565b9050919050565b60008082118015610a2557506000600454115b8015610a3357506000600554115b15610a6857610a61600554610a536004548561186790919063ffffffff16565b61193490919063ffffffff16565b9050610a6d565b600090505b919050565b6000600454905090565b6000600160008473ffffffffffffffffffffffffffffffffffffffff1673ffffffffffffffffffffffffffffffffffffffff16815260200190815260200160002060008373ffffffffffffffffffffffffffffffffffffffff1673ffffffffffffffffffffffffffffffffffffffff16815260200190815260200160002054905092915050565b600073ffffffffffffffffffffffffffffffffffffffff168373ffffffffffffffffffffffffffffffffffffffff1614151515610bce576040517f08c379a000000000000000000000000000000000000000000000000000000000815260040180806020018281038252602c8152602001807f45524332303a20496e76616c696420617070726f76652066726f6d207468652081526020017f7a65726f2061646472657373000000000000000000000000000000000000000081525060400191505060405180910390fd5b600073ffffffffffffffffffffffffffffffffffffffff168273ffffffffffffffffffffffffffffffffffffffff1614151515610c99576040517f08c379a000000000000000000000000000000000000000000000000000000000815260040180806020018281038252602a8152602001807f45524332303a20496e76616c696420617070726f766520746f20746865207a6581526020017f726f20616464726573730000000000000000000000000000000000000000000081525060400191505060405180910390fd5b80600160008573ffffffffffffffffffffffffffffffffffffffff1673ffffffffffffffffffffffffffffffffffffffff16815260200190815260200160002060008473ffffffffffffffffffffffffffffffffffffffff1673ffffffffffffffffffffffffffffffffffffffff168152602001908152602001600020819055508173ffffffffffffffffffffffffffffffffffffffff168373ffffffffffffffffffffffffffffffffffffffff167f8c5be1e5ebec7d5bd14f71427d1e84f3dd0314c0f7b2291e5b200ac8c7c3b925836040518082815260200191505060405180910390a3505050565b600073ffffffffffffffffffffffffffffffffffffffff163373ffffffffffffffffffffffffffffffffffffffff1614151515610e4f576040517f08c379a000000000000000000000000000000000000000000000000000000000815260040180806020018281038252602d8152602001807f45524332303a20496e76616c6964207472616e736665722066726f6d2074686581526020017f207a65726f20616464726573730000000000000000000000000000000000000081525060400191505060405180910390fd5b600073ffffffffffffffffffffffffffffffffffffffff168273ffffffffffffffffffffffffffffffffffffffff1614151515610f1a576040517f08c379a000000000000000000000000000000000000000000000000000000000815260040180806020018281038252602b8152602001807f45524332303a20496e76616c6964207472616e7366657220746f20746865207a81526020017f65726f206164647265737300000000000000000000000000000000000000000081525060400191505060405180910390fd5b600081111515610fb8576040517f08c379a00000000000000000000000000000000000000000000000000000000081526004018080602001828103825260218152602001807f45524332303a20496e76616c696420616d6f756e7420746f207472616e73666581526020017f720000000000000000000000000000000000000000000000000000000000000081525060400191505060405180910390fd5b6000610fc382610a12565b9050610fd8818361144990919063ffffffff16565b6000808673ffffffffffffffffffffffffffffffffffffffff1673ffffffffffffffffffffffffffffffffffffffff16815260200190815260200160002054101515156110b3576040517f08c379a00000000000000000000000000000000000000000000000000000000081526004018080602001828103825260258152602001807f45524332303a2047474320546f6b656e2066756e6420697320696e737566666981526020017f6369656e7400000000000000000000000000000000000000000000000000000081525060400191505060405180910390fd5b6111166110c9828461144990919063ffffffff16565b6000808773ffffffffffffffffffffffffffffffffffffffff1673ffffffffffffffffffffffffffffffffffffffff168152602001908152602001600020546113be90919063ffffffff16565b6000808673ffffffffffffffffffffffffffffffffffffffff1673ffffffffffffffffffffffffffffffffffffffff168152602001908152602001600020819055506111a9826000808673ffffffffffffffffffffffffffffffffffffffff1673ffffffffffffffffffffffffffffffffffffffff1681526020019081526020016000205461144990919063ffffffff16565b6000808573ffffffffffffffffffffffffffffffffffffffff1673ffffffffffffffffffffffffffffffffffffffff168152602001908152602001600020819055508273ffffffffffffffffffffffffffffffffffffffff168473ffffffffffffffffffffffffffffffffffffffff167fddf252ad1be2c89b69c2b068fc378daa952ba7f163c4a11628f55a4df523b3ef846040518082815260200191505060405180910390a360008111156113b8576112cc81600080600360009054906101000a900473ffffffffffffffffffffffffffffffffffffffff1673ffffffffffffffffffffffffffffffffffffffff1673ffffffffffffffffffffffffffffffffffffffff1681526020019081526020016000205461144990919063ffffffff16565b600080600360009054906101000a900473ffffffffffffffffffffffffffffffffffffffff1673ffffffffffffffffffffffffffffffffffffffff1673ffffffffffffffffffffffffffffffffffffffff16815260200190815260200160002081905550600360009054906101000a900473ffffffffffffffffffffffffffffffffffffffff1673ffffffffffffffffffffffffffffffffffffffff168473ffffffffffffffffffffffffffffffffffffffff167fddf252ad1be2c89b69c2b068fc378daa952ba7f163c4a11628f55a4df523b3ef836040518082815260200191505060405180910390a35b50505050565b6000828211151515611438576040517f08c379a000000000000000000000000000000000000000000000000000000000815260040180806020018281038252601e8152602001807f536166654d6174683a207375627472616374696f6e206f766572666c6f77000081525060200191505060405180910390fd5b600082840390508091505092915050565b60008082840190508381101515156114c9576040517f08c379a000000000000000000000000000000000000000000000000000000000815260040180806020018281038252601b8152602001807f536166654d6174683a206164646974696f6e206f766572666c6f77000000000081525060200191505060405180910390fd5b8091505092915050565b600073ffffffffffffffffffffffffffffffffffffffff168273ffffffffffffffffffffffffffffffffffffffff1614151515611578576040517f08c379a000000000000000000000000000000000000000000000000000000000815260040180806020018281038252601f8152602001807f45524332303a206d696e7420746f20746865207a65726f20616464726573730081525060200191505060405180910390fd5b61158d8160025461144990919063ffffffff16565b6002819055506115e4816000808573ffffffffffffffffffffffffffffffffffffffff1673ffffffffffffffffffffffffffffffffffffffff1681526020019081526020016000205461144990919063ffffffff16565b6000808473ffffffffffffffffffffffffffffffffffffffff1673ffffffffffffffffffffffffffffffffffffffff168152602001908152602001600020819055508173ffffffffffffffffffffffffffffffffffffffff16600073ffffffffffffffffffffffffffffffffffffffff167fddf252ad1be2c89b69c2b068fc378daa952ba7f163c4a11628f55a4df523b3ef836040518082815260200191505060405180910390a35050565b6116a48160066119c790919063ffffffff16565b8073ffffffffffffffffffffffffffffffffffffffff167f6ae172837ea30b801fbfcdd4108aa1d5bf8ff775444fd70256b44e6bf3dfc3f660405160405180910390a250565b6116fe816006611aa490919063ffffffff16565b8073ffffffffffffffffffffffffffffffffffffffff167fe94479a9f7e1952cc78f2d6baab678adc1b772d936c6583def489e524cb6669260405160405180910390a250565b60008073ffffffffffffffffffffffffffffffffffffffff168273ffffffffffffffffffffffffffffffffffffffff1614151515611810576040517f08c379a00000000000000000000000000000000000000000000000000000000081526004018080602001828103825260228152602001807f526f6c65733a206163636f756e7420697320746865207a65726f20616464726581526020017f737300000000000000000000000000000000000000000000000000000000000081525060400191505060405180910390fd5b8260000160008373ffffffffffffffffffffffffffffffffffffffff1673ffffffffffffffffffffffffffffffffffffffff16815260200190815260200160002060009054906101000a900460ff16905092915050565b60008083141561187a576000905061192e565b6000828402905082848281151561188d57fe5b04141515611929576040517f08c379a00000000000000000000000000000000000000000000000000000000081526004018080602001828103825260218152602001807f536166654d6174683a206d756c7469706c69636174696f6e206f766572666c6f81526020017f770000000000000000000000000000000000000000000000000000000000000081525060400191505060405180910390fd5b809150505b92915050565b600080821115156119ad576040517f08c379a000000000000000000000000000000000000000000000000000000000815260040180806020018281038252601a8152602001807f536166654d6174683a206469766973696f6e206279207a65726f00000000000081525060200191505060405180910390fd5b600082848115156119ba57fe5b0490508091505092915050565b6119d18282611744565b151515611a46576040517f08c379a000000000000000000000000000000000000000000000000000000000815260040180806020018281038252601f8152602001807f526f6c65733a206163636f756e7420616c72656164792068617320726f6c650081525060200191505060405180910390fd5b60018260000160008373ffffffffffffffffffffffffffffffffffffffff1673ffffffffffffffffffffffffffffffffffffffff16815260200190815260200160002060006101000a81548160ff0219169083151502179055505050565b611aae8282611744565b1515611b48576040517f08c379a00000000000000000000000000000000000000000000000000000000081526004018080602001828103825260218152602001807f526f6c65733a206163636f756e7420646f6573206e6f74206861766520726f6c81526020017f650000000000000000000000000000000000000000000000000000000000000081525060400191505060405180910390fd5b60008260000160008373ffffffffffffffffffffffffffffffffffffffff1673ffffffffffffffffffffffffffffffffffffffff16815260200190815260200160002060006101000a81548160ff021916908315150217905550505056fea165627a7a72305820f77685599bba7888a6ad198b151282ee32b32fc49597aa32e6ea389f01ccf6810029",
  "source": "pragma solidity ^0.5.0;\n\nimport \"./ERC20.sol\";\nimport \"../access/roles/MinterRole.sol\";\n\n/**\n * @dev Extension of `ERC20` that adds a set of accounts with the `MinterRole`,\n * which have permission to mint (create) new tokens as they see fit.\n *\n * At construction, the deployer of the contract is the only minter.\n */\ncontract ERC20Mintable is ERC20, MinterRole {\n    /**\n     * @dev See `ERC20._mint`.\n     *\n     * Requirements:\n     *\n     * - the caller must have the `MinterRole`.\n     */\n    function mint(address account, uint256 amount) public onlyMinter returns (bool) {\n        _mint(account, amount);\n        return true;\n    }\n}\n",
  "sourcePath": "/home/papan/workspace/hyperledger/freefuel/fuel-eth-smartcontract/contracts/ERC20/ERC20Mintable.sol",
  "compiler": {
    "name": "solc",
    "version": "0.5.0+commit.1d4f565a.Emscripten.clang"
  },
  "schemaVersion": "3.0.19",
  "updatedAt": "2019-11-16T08:19:54.936Z",
  "devdoc": {
    "details": "Extension of `ERC20` that adds a set of accounts with the `MinterRole`, which have permission to mint (create) new tokens as they see fit. * At construction, the deployer of the contract is the only minter.",
    "methods": {
      "allowance(address,address)": {
        "details": "See `IERC20.allowance`."
      },
      "approve(address,uint256)": {
        "details": "See `IERC20.approve`.     * Requirements:     * - `spender` cannot be the zero address."
      },
      "balanceOf(address)": {
        "details": "See `IERC20.balanceOf`."
      },
      "computeTxFee(uint256)": {
        "details": "Computes the actual tx fee for front-end use."
      },
      "decreaseAllowance(address,uint256)": {
        "details": "Atomically decreases the allowance granted to `spender` by the caller.     * This is an alternative to `approve` that can be used as a mitigation for problems described in `IERC20.approve`.     * Emits an `Approval` event indicating the updated allowance.     * Requirements:     * - `spender` cannot be the zero address. - `spender` must have allowance for the caller of at least `subtractedValue`."
      },
      "getFee()": {
        "details": "Transaction fee rate is available to public."
      },
      "increaseAllowance(address,uint256)": {
        "details": "Atomically increases the allowance granted to `spender` by the caller.     * This is an alternative to `approve` that can be used as a mitigation for problems described in `IERC20.approve`.     * Emits an `Approval` event indicating the updated allowance.     * Requirements:     * - `spender` cannot be the zero address."
      },
      "mint(address,uint256)": {
        "details": "See `ERC20._mint`.     * Requirements:     * - the caller must have the `MinterRole`."
      },
      "totalSupply()": {
        "details": "See `IERC20.totalSupply`."
      },
      "transfer(address,uint256)": {
        "details": "See `IERC20.transfer`.     * Requirements:     * - `recipient` cannot be the zero address. - the caller must have a balance of at least `amount`."
      },
      "transferFrom(address,address,uint256)": {
        "details": "See `IERC20.transferFrom`.     * Emits an `Approval` event indicating the updated allowance. This is not required by the EIP. See the note at the beginning of `ERC20`;     * Requirements: - `sender` and `recipient` cannot be the zero address. - `sender` must have a balance of at least `value`. - the caller must have allowance for `sender`'s tokens of at least `amount`."
      }
    }
  },
  "userdoc": {
    "methods": {}
  }
}