{
  "contractName": "FFCToken",
  "abi": [
    {
      "constant": true,
      "inputs": [],
      "name": "name",
      "outputs": [
        {
          "name": "",
          "type": "string"
        }
      ],
      "payable": false,
      "stateMutability": "view",
      "type": "function"
    },
    {
      "constant": false,
      "inputs": [
        {
          "name": "spender",
          "type": "address"
        },
        {
          "name": "value",
          "type": "uint256"
        }
      ],
      "name": "approve",
      "outputs": [
        {
          "name": "",
          "type": "bool"
        }
      ],
      "payable": false,
      "stateMutability": "nonpayable",
      "type": "function"
    },
    {
      "constant": true,
      "inputs": [],
      "name": "totalSupply",
      "outputs": [
        {
          "name": "",
          "type": "uint256"
        }
      ],
      "payable": false,
      "stateMutability": "view",
      "type": "function"
    },
    {
      "constant": false,
      "inputs": [
        {
          "name": "from",
          "type": "address"
        },
        {
          "name": "to",
          "type": "address"
        },
        {
          "name": "value",
          "type": "uint256"
        }
      ],
      "name": "transferFrom",
      "outputs": [
        {
          "name": "",
          "type": "bool"
        }
      ],
      "payable": false,
      "stateMutability": "nonpayable",
      "type": "function"
    },
    {
      "constant": true,
      "inputs": [],
      "name": "decimals",
      "outputs": [
        {
          "name": "",
          "type": "uint8"
        }
      ],
      "payable": false,
      "stateMutability": "view",
      "type": "function"
    },
    {
      "constant": false,
      "inputs": [
        {
          "name": "spender",
          "type": "address"
        },
        {
          "name": "addedValue",
          "type": "uint256"
        }
      ],
      "name": "increaseAllowance",
      "outputs": [
        {
          "name": "",
          "type": "bool"
        }
      ],
      "payable": false,
      "stateMutability": "nonpayable",
      "type": "function"
    },
    {
      "constant": false,
      "inputs": [],
      "name": "unpause",
      "outputs": [],
      "payable": false,
      "stateMutability": "nonpayable",
      "type": "function"
    },
    {
      "constant": false,
      "inputs": [
        {
          "name": "account",
          "type": "address"
        },
        {
          "name": "amount",
          "type": "uint256"
        }
      ],
      "name": "mint",
      "outputs": [
        {
          "name": "",
          "type": "bool"
        }
      ],
      "payable": false,
      "stateMutability": "nonpayable",
      "type": "function"
    },
    {
      "constant": false,
      "inputs": [
        {
          "name": "amount",
          "type": "uint256"
        }
      ],
      "name": "burn",
      "outputs": [],
      "payable": false,
      "stateMutability": "nonpayable",
      "type": "function"
    },
    {
      "constant": true,
      "inputs": [
        {
          "name": "account",
          "type": "address"
        }
      ],
      "name": "isPauser",
      "outputs": [
        {
          "name": "",
          "type": "bool"
        }
      ],
      "payable": false,
      "stateMutability": "view",
      "type": "function"
    },
    {
      "constant": true,
      "inputs": [],
      "name": "paused",
      "outputs": [
        {
          "name": "",
          "type": "bool"
        }
      ],
      "payable": false,
      "stateMutability": "view",
      "type": "function"
    },
    {
      "constant": false,
      "inputs": [
        {
          "name": "fee",
          "type": "uint256"
        }
      ],
      "name": "setFee",
      "outputs": [
        {
          "name": "",
          "type": "bool"
        }
      ],
      "payable": false,
      "stateMutability": "nonpayable",
      "type": "function"
    },
    {
      "constant": false,
      "inputs": [],
      "name": "renouncePauser",
      "outputs": [],
      "payable": false,
      "stateMutability": "nonpayable",
      "type": "function"
    },
    {
      "constant": true,
      "inputs": [
        {
          "name": "account",
          "type": "address"
        }
      ],
      "name": "balanceOf",
      "outputs": [
        {
          "name": "",
          "type": "uint256"
        }
      ],
      "payable": false,
      "stateMutability": "view",
      "type": "function"
    },
    {
      "constant": false,
      "inputs": [
        {
          "name": "account",
          "type": "address"
        },
        {
          "name": "amount",
          "type": "uint256"
        }
      ],
      "name": "burnFrom",
      "outputs": [],
      "payable": false,
      "stateMutability": "nonpayable",
      "type": "function"
    },
    {
      "constant": false,
      "inputs": [
        {
          "name": "account",
          "type": "address"
        }
      ],
      "name": "addPauser",
      "outputs": [],
      "payable": false,
      "stateMutability": "nonpayable",
      "type": "function"
    },
    {
      "constant": false,
      "inputs": [],
      "name": "pause",
      "outputs": [],
      "payable": false,
      "stateMutability": "nonpayable",
      "type": "function"
    },
    {
      "constant": true,
      "inputs": [],
      "name": "symbol",
      "outputs": [
        {
          "name": "",
          "type": "string"
        }
      ],
      "payable": false,
      "stateMutability": "view",
      "type": "function"
    },
    {
      "constant": false,
      "inputs": [
        {
          "name": "account",
          "type": "address"
        }
      ],
      "name": "addMinter",
      "outputs": [],
      "payable": false,
      "stateMutability": "nonpayable",
      "type": "function"
    },
    {
      "constant": false,
      "inputs": [],
      "name": "renounceMinter",
      "outputs": [],
      "payable": false,
      "stateMutability": "nonpayable",
      "type": "function"
    },
    {
      "constant": false,
      "inputs": [
        {
          "name": "spender",
          "type": "address"
        },
        {
          "name": "subtractedValue",
          "type": "uint256"
        }
      ],
      "name": "decreaseAllowance",
      "outputs": [
        {
          "name": "",
          "type": "bool"
        }
      ],
      "payable": false,
      "stateMutability": "nonpayable",
      "type": "function"
    },
    {
      "constant": false,
      "inputs": [
        {
          "name": "to",
          "type": "address"
        },
        {
          "name": "value",
          "type": "uint256"
        }
      ],
      "name": "transfer",
      "outputs": [
        {
          "name": "",
          "type": "bool"
        }
      ],
      "payable": false,
      "stateMutability": "nonpayable",
      "type": "function"
    },
    {
      "constant": true,
      "inputs": [
        {
          "name": "account",
          "type": "address"
        }
      ],
      "name": "isMinter",
      "outputs": [
        {
          "name": "",
          "type": "bool"
        }
      ],
      "payable": false,
      "stateMutability": "view",
      "type": "function"
    },
    {
      "constant": true,
      "inputs": [
        {
          "name": "amount",
          "type": "uint256"
        }
      ],
      "name": "computeTxFee",
      "outputs": [
        {
          "name": "",
          "type": "uint256"
        }
      ],
      "payable": false,
      "stateMutability": "view",
      "type": "function"
    },
    {
      "constant": true,
      "inputs": [],
      "name": "getFee",
      "outputs": [
        {
          "name": "",
          "type": "uint256"
        }
      ],
      "payable": false,
      "stateMutability": "view",
      "type": "function"
    },
    {
      "constant": true,
      "inputs": [
        {
          "name": "owner",
          "type": "address"
        },
        {
          "name": "spender",
          "type": "address"
        }
      ],
      "name": "allowance",
      "outputs": [
        {
          "name": "",
          "type": "uint256"
        }
      ],
      "payable": false,
      "stateMutability": "view",
      "type": "function"
    },
    {
      "constant": true,
      "inputs": [],
      "name": "getFeeReceiver",
      "outputs": [
        {
          "name": "",
          "type": "address"
        }
      ],
      "payable": false,
      "stateMutability": "view",
      "type": "function"
    },
    {
      "constant": false,
      "inputs": [
        {
          "name": "_feeReceiver",
          "type": "address"
        }
      ],
      "name": "setFeeReceiver",
      "outputs": [
        {
          "name": "",
          "type": "bool"
        }
      ],
      "payable": false,
      "stateMutability": "nonpayable",
      "type": "function"
    },
    {
      "inputs": [],
      "payable": false,
      "stateMutability": "nonpayable",
      "type": "constructor"
    },
    {
      "anonymous": false,
      "inputs": [
        {
          "indexed": false,
          "name": "account",
          "type": "address"
        }
      ],
      "name": "Paused",
      "type": "event"
    },
    {
      "anonymous": false,
      "inputs": [
        {
          "indexed": false,
          "name": "account",
          "type": "address"
        }
      ],
      "name": "Unpaused",
      "type": "event"
    },
    {
      "anonymous": false,
      "inputs": [
        {
          "indexed": true,
          "name": "account",
          "type": "address"
        }
      ],
      "name": "PauserAdded",
      "type": "event"
    },
    {
      "anonymous": false,
      "inputs": [
        {
          "indexed": true,
          "name": "account",
          "type": "address"
        }
      ],
      "name": "PauserRemoved",
      "type": "event"
    },
    {
      "anonymous": false,
      "inputs": [
        {
          "indexed": true,
          "name": "account",
          "type": "address"
        }
      ],
      "name": "MinterAdded",
      "type": "event"
    },
    {
      "anonymous": false,
      "inputs": [
        {
          "indexed": true,
          "name": "account",
          "type": "address"
        }
      ],
      "name": "MinterRemoved",
      "type": "event"
    },
    {
      "anonymous": false,
      "inputs": [
        {
          "indexed": true,
          "name": "from",
          "type": "address"
        },
        {
          "indexed": true,
          "name": "to",
          "type": "address"
        },
        {
          "indexed": false,
          "name": "value",
          "type": "uint256"
        }
      ],
      "name": "Transfer",
      "type": "event"
    },
    {
      "anonymous": false,
      "inputs": [
        {
          "indexed": true,
          "name": "owner",
          "type": "address"
        },
        {
          "indexed": true,
          "name": "spender",
          "type": "address"
        },
        {
          "indexed": false,
          "name": "value",
          "type": "uint256"
        }
      ],
      "name": "Approval",
      "type": "event"
    }
  ],
  "bytecode": "0x60806040527332e3740e7f63333f4f9da21673d04f0f21f840be600360006101000a81548173ffffffffffffffffffffffffffffffffffffffff021916908373ffffffffffffffffffffffffffffffffffffffff16021790555065b5e620f48000600455670de0b6b3a76400006005553480156200007c57600080fd5b506040805190810160405280600c81526020017f467265654675656c436f696e00000000000000000000000000000000000000008152506040805190810160405280600381526020017f46464300000000000000000000000000000000000000000000000000000000008152506012620001053362000190640100000000026401000000009004565b6200011f33620001fa640100000000026401000000009004565b6000600860006101000a81548160ff02191690831515021790555082600990805190602001906200015292919062000477565b5081600a90805190602001906200016b92919062000477565b5080600b60006101000a81548160ff021916908360ff16021790555050505062000526565b620001b4816006620002646401000000000262002ee9179091906401000000009004565b8073ffffffffffffffffffffffffffffffffffffffff167f6ae172837ea30b801fbfcdd4108aa1d5bf8ff775444fd70256b44e6bf3dfc3f660405160405180910390a250565b6200021e816007620002646401000000000262002ee9179091906401000000009004565b8073ffffffffffffffffffffffffffffffffffffffff167f6719d08c1888103bea251a4ed56406bd0c3e69723c8a1686e017e7bbe159b6f860405160405180910390a250565b6200027f828262000353640100000000026401000000009004565b151515620002f5576040517f08c379a000000000000000000000000000000000000000000000000000000000815260040180806020018281038252601f8152602001807f526f6c65733a206163636f756e7420616c72656164792068617320726f6c650081525060200191505060405180910390fd5b60018260000160008373ffffffffffffffffffffffffffffffffffffffff1673ffffffffffffffffffffffffffffffffffffffff16815260200190815260200160002060006101000a81548160ff0219169083151502179055505050565b60008073ffffffffffffffffffffffffffffffffffffffff168273ffffffffffffffffffffffffffffffffffffffff161415151562000420576040517f08c379a00000000000000000000000000000000000000000000000000000000081526004018080602001828103825260228152602001807f526f6c65733a206163636f756e7420697320746865207a65726f20616464726581526020017f737300000000000000000000000000000000000000000000000000000000000081525060400191505060405180910390fd5b8260000160008373ffffffffffffffffffffffffffffffffffffffff1673ffffffffffffffffffffffffffffffffffffffff16815260200190815260200160002060009054906101000a900460ff16905092915050565b828054600181600116156101000203166002900490600052602060002090601f016020900481019282601f10620004ba57805160ff1916838001178555620004eb565b82800160010185558215620004eb579182015b82811115620004ea578251825591602001919060010190620004cd565b5b509050620004fa9190620004fe565b5090565b6200052391905b808211156200051f57600081600090555060010162000505565b5090565b90565b612ff280620005366000396000f3fe60806040526004361061016a576000357c0100000000000000000000000000000000000000000000000000000000900463ffffffff16806306fdde031461016f578063095ea7b3146101ff57806318160ddd1461027257806323b872dd1461029d578063313ce5671461033057806339509351146103615780633f4ba83a146103d457806340c10f19146103eb57806342966c681461045e57806346fbf68e146104995780635c975abb1461050257806369fe0e2d146105315780636ef8d66d1461058457806370a082311461059b57806379cc67901461060057806382dc1ec41461065b5780638456cb59146106ac57806395d89b41146106c3578063983b2d561461075357806398650275146107a4578063a457c2d7146107bb578063a9059cbb1461082e578063aa271e1a146108a1578063c2eaaeb31461090a578063ced72f8714610959578063dd62ed3e14610984578063e8a3539214610a09578063efdcd97414610a60575b600080fd5b34801561017b57600080fd5b50610184610ac9565b6040518080602001828103825283818151815260200191508051906020019080838360005b838110156101c45780820151818401526020810190506101a9565b50505050905090810190601f1680156101f15780820380516001836020036101000a031916815260200191505b509250505060405180910390f35b34801561020b57600080fd5b506102586004803603604081101561022257600080fd5b81019080803573ffffffffffffffffffffffffffffffffffffffff16906020019092919080359060200190929190505050610b6b565b604051808215151515815260200191505060405180910390f35b34801561027e57600080fd5b50610287610c04565b6040518082815260200191505060405180910390f35b3480156102a957600080fd5b50610316600480360360608110156102c057600080fd5b81019080803573ffffffffffffffffffffffffffffffffffffffff169060200190929190803573ffffffffffffffffffffffffffffffffffffffff16906020019092919080359060200190929190505050610c0e565b604051808215151515815260200191505060405180910390f35b34801561033c57600080fd5b50610345610ca9565b604051808260ff1660ff16815260200191505060405180910390f35b34801561036d57600080fd5b506103ba6004803603604081101561038457600080fd5b81019080803573ffffffffffffffffffffffffffffffffffffffff16906020019092919080359060200190929190505050610cc0565b604051808215151515815260200191505060405180910390f35b3480156103e057600080fd5b506103e9610d59565b005b3480156103f757600080fd5b506104446004803603604081101561040e57600080fd5b81019080803573ffffffffffffffffffffffffffffffffffffffff16906020019092919080359060200190929190505050610f00565b604051808215151515815260200191505060405180910390f35b34801561046a57600080fd5b506104976004803603602081101561048157600080fd5b8101908080359060200190929190505050610fb9565b005b3480156104a557600080fd5b506104e8600480360360208110156104bc57600080fd5b81019080803573ffffffffffffffffffffffffffffffffffffffff169060200190929190505050610fc6565b604051808215151515815260200191505060405180910390f35b34801561050e57600080fd5b50610517610fe3565b604051808215151515815260200191505060405180910390f35b34801561053d57600080fd5b5061056a6004803603602081101561055457600080fd5b8101908080359060200190929190505050610ffa565b604051808215151515815260200191505060405180910390f35b34801561059057600080fd5b506105996110af565b005b3480156105a757600080fd5b506105ea600480360360208110156105be57600080fd5b81019080803573ffffffffffffffffffffffffffffffffffffffff1690602001909291905050506110ba565b6040518082815260200191505060405180910390f35b34801561060c57600080fd5b506106596004803603604081101561062357600080fd5b81019080803573ffffffffffffffffffffffffffffffffffffffff16906020019092919080359060200190929190505050611102565b005b34801561066757600080fd5b506106aa6004803603602081101561067e57600080fd5b81019080803573ffffffffffffffffffffffffffffffffffffffff169060200190929190505050611110565b005b3480156106b857600080fd5b506106c16111bf565b005b3480156106cf57600080fd5b506106d8611367565b6040518080602001828103825283818151815260200191508051906020019080838360005b838110156107185780820151818401526020810190506106fd565b50505050905090810190601f1680156107455780820380516001836020036101000a031916815260200191505b509250505060405180910390f35b34801561075f57600080fd5b506107a26004803603602081101561077657600080fd5b81019080803573ffffffffffffffffffffffffffffffffffffffff169060200190929190505050611409565b005b3480156107b057600080fd5b506107b96114b8565b005b3480156107c757600080fd5b50610814600480360360408110156107de57600080fd5b81019080803573ffffffffffffffffffffffffffffffffffffffff169060200190929190803590602001909291905050506114c3565b604051808215151515815260200191505060405180910390f35b34801561083a57600080fd5b506108876004803603604081101561085157600080fd5b81019080803573ffffffffffffffffffffffffffffffffffffffff1690602001909291908035906020019092919050505061155c565b604051808215151515815260200191505060405180910390f35b3480156108ad57600080fd5b506108f0600480360360208110156108c457600080fd5b81019080803573ffffffffffffffffffffffffffffffffffffffff1690602001909291905050506115f5565b604051808215151515815260200191505060405180910390f35b34801561091657600080fd5b506109436004803603602081101561092d57600080fd5b8101908080359060200190929190505050611612565b6040518082815260200191505060405180910390f35b34801561096557600080fd5b5061096e611672565b6040518082815260200191505060405180910390f35b34801561099057600080fd5b506109f3600480360360408110156109a757600080fd5b81019080803573ffffffffffffffffffffffffffffffffffffffff169060200190929190803573ffffffffffffffffffffffffffffffffffffffff16906020019092919050505061167c565b6040518082815260200191505060405180910390f35b348015610a1557600080fd5b50610a1e611703565b604051808273ffffffffffffffffffffffffffffffffffffffff1673ffffffffffffffffffffffffffffffffffffffff16815260200191505060405180910390f35b348015610a6c57600080fd5b50610aaf60048036036020811015610a8357600080fd5b81019080803573ffffffffffffffffffffffffffffffffffffffff1690602001909291905050506117b5565b604051808215151515815260200191505060405180910390f35b606060098054600181600116156101000203166002900480601f016020809104026020016040519081016040528092919081815260200182805460018160011615610100020316600290048015610b615780601f10610b3657610100808354040283529160200191610b61565b820191906000526020600020905b815481529060010190602001808311610b4457829003601f168201915b5050505050905090565b6000600860009054906101000a900460ff16151515610bf2576040517f08c379a00000000000000000000000000000000000000000000000000000000081526004018080602001828103825260108152602001807f5061757361626c653a207061757365640000000000000000000000000000000081525060200191505060405180910390fd5b610bfc838361186a565b905092915050565b6000600254905090565b6000600860009054906101000a900460ff16151515610c95576040517f08c379a00000000000000000000000000000000000000000000000000000000081526004018080602001828103825260108152602001807f5061757361626c653a207061757365640000000000000000000000000000000081525060200191505060405180910390fd5b610ca0848484611881565b90509392505050565b6000600b60009054906101000a900460ff16905090565b6000600860009054906101000a900460ff16151515610d47576040517f08c379a00000000000000000000000000000000000000000000000000000000081526004018080602001828103825260108152602001807f5061757361626c653a207061757365640000000000000000000000000000000081525060200191505060405180910390fd5b610d518383611932565b905092915050565b610d6233610fc6565b1515610dfc576040517f08c379a00000000000000000000000000000000000000000000000000000000081526004018080602001828103825260308152602001807f506175736572526f6c653a2063616c6c657220646f6573206e6f74206861766581526020017f207468652050617573657220726f6c650000000000000000000000000000000081525060400191505060405180910390fd5b600860009054906101000a900460ff161515610e80576040517f08c379a00000000000000000000000000000000000000000000000000000000081526004018080602001828103825260148152602001807f5061757361626c653a206e6f742070617573656400000000000000000000000081525060200191505060405180910390fd5b6000600860006101000a81548160ff0219169083151502179055507f5db9ee0a495bf2e6ff9c91a7834c1ba4fdd244a5e8aa4e537bd38aeae4b073aa33604051808273ffffffffffffffffffffffffffffffffffffffff1673ffffffffffffffffffffffffffffffffffffffff16815260200191505060405180910390a1565b6000610f0b336115f5565b1515610fa5576040517f08c379a00000000000000000000000000000000000000000000000000000000081526004018080602001828103825260308152602001807f4d696e746572526f6c653a2063616c6c657220646f6573206e6f74206861766581526020017f20746865204d696e74657220726f6c650000000000000000000000000000000081525060400191505060405180910390fd5b610faf83836119d7565b6001905092915050565b610fc33382611b94565b50565b6000610fdc826007611d7790919063ffffffff16565b9050919050565b6000600860009054906101000a900460ff16905090565b6000611005336115f5565b151561109f576040517f08c379a00000000000000000000000000000000000000000000000000000000081526004018080602001828103825260308152602001807f4d696e746572526f6c653a2063616c6c657220646f6573206e6f74206861766581526020017f20746865204d696e74657220726f6c650000000000000000000000000000000081525060400191505060405180910390fd5b6110a882611e9a565b9050919050565b6110b833611eac565b565b60008060008373ffffffffffffffffffffffffffffffffffffffff1673ffffffffffffffffffffffffffffffffffffffff168152602001908152602001600020549050919050565b61110c8282611f06565b5050565b61111933610fc6565b15156111b3576040517f08c379a00000000000000000000000000000000000000000000000000000000081526004018080602001828103825260308152602001807f506175736572526f6c653a2063616c6c657220646f6573206e6f74206861766581526020017f207468652050617573657220726f6c650000000000000000000000000000000081525060400191505060405180910390fd5b6111bc81611fad565b50565b6111c833610fc6565b1515611262576040517f08c379a00000000000000000000000000000000000000000000000000000000081526004018080602001828103825260308152602001807f506175736572526f6c653a2063616c6c657220646f6573206e6f74206861766581526020017f207468652050617573657220726f6c650000000000000000000000000000000081525060400191505060405180910390fd5b600860009054906101000a900460ff161515156112e7576040517f08c379a00000000000000000000000000000000000000000000000000000000081526004018080602001828103825260108152602001807f5061757361626c653a207061757365640000000000000000000000000000000081525060200191505060405180910390fd5b6001600860006101000a81548160ff0219169083151502179055507f62e78cea01bee320cd4e420270b5ea74000d11b0c9f74754ebdbfc544b05a25833604051808273ffffffffffffffffffffffffffffffffffffffff1673ffffffffffffffffffffffffffffffffffffffff16815260200191505060405180910390a1565b6060600a8054600181600116156101000203166002900480601f0160208091040260200160405190810160405280929190818152602001828054600181600116156101000203166002900480156113ff5780601f106113d4576101008083540402835291602001916113ff565b820191906000526020600020905b8154815290600101906020018083116113e257829003601f168201915b5050505050905090565b611412336115f5565b15156114ac576040517f08c379a00000000000000000000000000000000000000000000000000000000081526004018080602001828103825260308152602001807f4d696e746572526f6c653a2063616c6c657220646f6573206e6f74206861766581526020017f20746865204d696e74657220726f6c650000000000000000000000000000000081525060400191505060405180910390fd5b6114b581612007565b50565b6114c133612061565b565b6000600860009054906101000a900460ff1615151561154a576040517f08c379a00000000000000000000000000000000000000000000000000000000081526004018080602001828103825260108152602001807f5061757361626c653a207061757365640000000000000000000000000000000081525060200191505060405180910390fd5b61155483836120bb565b905092915050565b6000600860009054906101000a900460ff161515156115e3576040517f08c379a00000000000000000000000000000000000000000000000000000000081526004018080602001828103825260108152602001807f5061757361626c653a207061757365640000000000000000000000000000000081525060200191505060405180910390fd5b6115ed8383612160565b905092915050565b600061160b826006611d7790919063ffffffff16565b9050919050565b6000808211801561162557506000600454115b801561163357506000600554115b15611668576116616005546116536004548561217790919063ffffffff16565b61224490919063ffffffff16565b905061166d565b600090505b919050565b6000600454905090565b6000600160008473ffffffffffffffffffffffffffffffffffffffff1673ffffffffffffffffffffffffffffffffffffffff16815260200190815260200160002060008373ffffffffffffffffffffffffffffffffffffffff1673ffffffffffffffffffffffffffffffffffffffff16815260200190815260200160002054905092915050565b600061170e336115f5565b15156117a8576040517f08c379a00000000000000000000000000000000000000000000000000000000081526004018080602001828103825260308152602001807f4d696e746572526f6c653a2063616c6c657220646f6573206e6f74206861766581526020017f20746865204d696e74657220726f6c650000000000000000000000000000000081525060400191505060405180910390fd5b6117b06122d7565b905090565b60006117c0336115f5565b151561185a576040517f08c379a00000000000000000000000000000000000000000000000000000000081526004018080602001828103825260308152602001807f4d696e746572526f6c653a2063616c6c657220646f6573206e6f74206861766581526020017f20746865204d696e74657220726f6c650000000000000000000000000000000081525060400191505060405180910390fd5b61186382612301565b9050919050565b6000611877338484612417565b6001905092915050565b600061188e848484612698565b611927843361192285600160008a73ffffffffffffffffffffffffffffffffffffffff1673ffffffffffffffffffffffffffffffffffffffff16815260200190815260200160002060003373ffffffffffffffffffffffffffffffffffffffff1673ffffffffffffffffffffffffffffffffffffffff16815260200190815260200160002054612cd290919063ffffffff16565b612417565b600190509392505050565b60006119cd33846119c885600160003373ffffffffffffffffffffffffffffffffffffffff1673ffffffffffffffffffffffffffffffffffffffff16815260200190815260200160002060008973ffffffffffffffffffffffffffffffffffffffff1673ffffffffffffffffffffffffffffffffffffffff16815260200190815260200160002054612d5d90919063ffffffff16565b612417565b6001905092915050565b600073ffffffffffffffffffffffffffffffffffffffff168273ffffffffffffffffffffffffffffffffffffffff1614151515611a7c576040517f08c379a000000000000000000000000000000000000000000000000000000000815260040180806020018281038252601f8152602001807f45524332303a206d696e7420746f20746865207a65726f20616464726573730081525060200191505060405180910390fd5b611a9181600254612d5d90919063ffffffff16565b600281905550611ae8816000808573ffffffffffffffffffffffffffffffffffffffff1673ffffffffffffffffffffffffffffffffffffffff16815260200190815260200160002054612d5d90919063ffffffff16565b6000808473ffffffffffffffffffffffffffffffffffffffff1673ffffffffffffffffffffffffffffffffffffffff168152602001908152602001600020819055508173ffffffffffffffffffffffffffffffffffffffff16600073ffffffffffffffffffffffffffffffffffffffff167fddf252ad1be2c89b69c2b068fc378daa952ba7f163c4a11628f55a4df523b3ef836040518082815260200191505060405180910390a35050565b600073ffffffffffffffffffffffffffffffffffffffff168273ffffffffffffffffffffffffffffffffffffffff1614151515611c5f576040517f08c379a00000000000000000000000000000000000000000000000000000000081526004018080602001828103825260218152602001807f45524332303a206275726e2066726f6d20746865207a65726f2061646472657381526020017f730000000000000000000000000000000000000000000000000000000000000081525060400191505060405180910390fd5b611c7481600254612cd290919063ffffffff16565b600281905550611ccb816000808573ffffffffffffffffffffffffffffffffffffffff1673ffffffffffffffffffffffffffffffffffffffff16815260200190815260200160002054612cd290919063ffffffff16565b6000808473ffffffffffffffffffffffffffffffffffffffff1673ffffffffffffffffffffffffffffffffffffffff16815260200190815260200160002081905550600073ffffffffffffffffffffffffffffffffffffffff168273ffffffffffffffffffffffffffffffffffffffff167fddf252ad1be2c89b69c2b068fc378daa952ba7f163c4a11628f55a4df523b3ef836040518082815260200191505060405180910390a35050565b60008073ffffffffffffffffffffffffffffffffffffffff168273ffffffffffffffffffffffffffffffffffffffff1614151515611e43576040517f08c379a00000000000000000000000000000000000000000000000000000000081526004018080602001828103825260228152602001807f526f6c65733a206163636f756e7420697320746865207a65726f20616464726581526020017f737300000000000000000000000000000000000000000000000000000000000081525060400191505060405180910390fd5b8260000160008373ffffffffffffffffffffffffffffffffffffffff1673ffffffffffffffffffffffffffffffffffffffff16815260200190815260200160002060009054906101000a900460ff16905092915050565b60008160048190555060019050919050565b611ec0816007612de790919063ffffffff16565b8073ffffffffffffffffffffffffffffffffffffffff167fcd265ebaf09df2871cc7bd4133404a235ba12eff2041bb89d9c714a2621c7c7e60405160405180910390a250565b611f108282611b94565b611fa98233611fa484600160008873ffffffffffffffffffffffffffffffffffffffff1673ffffffffffffffffffffffffffffffffffffffff16815260200190815260200160002060003373ffffffffffffffffffffffffffffffffffffffff1673ffffffffffffffffffffffffffffffffffffffff16815260200190815260200160002054612cd290919063ffffffff16565b612417565b5050565b611fc1816007612ee990919063ffffffff16565b8073ffffffffffffffffffffffffffffffffffffffff167f6719d08c1888103bea251a4ed56406bd0c3e69723c8a1686e017e7bbe159b6f860405160405180910390a250565b61201b816006612ee990919063ffffffff16565b8073ffffffffffffffffffffffffffffffffffffffff167f6ae172837ea30b801fbfcdd4108aa1d5bf8ff775444fd70256b44e6bf3dfc3f660405160405180910390a250565b612075816006612de790919063ffffffff16565b8073ffffffffffffffffffffffffffffffffffffffff167fe94479a9f7e1952cc78f2d6baab678adc1b772d936c6583def489e524cb6669260405160405180910390a250565b6000612156338461215185600160003373ffffffffffffffffffffffffffffffffffffffff1673ffffffffffffffffffffffffffffffffffffffff16815260200190815260200160002060008973ffffffffffffffffffffffffffffffffffffffff1673ffffffffffffffffffffffffffffffffffffffff16815260200190815260200160002054612cd290919063ffffffff16565b612417565b6001905092915050565b600061216d338484612698565b6001905092915050565b60008083141561218a576000905061223e565b6000828402905082848281151561219d57fe5b04141515612239576040517f08c379a00000000000000000000000000000000000000000000000000000000081526004018080602001828103825260218152602001807f536166654d6174683a206d756c7469706c69636174696f6e206f766572666c6f81526020017f770000000000000000000000000000000000000000000000000000000000000081525060400191505060405180910390fd5b809150505b92915050565b600080821115156122bd576040517f08c379a000000000000000000000000000000000000000000000000000000000815260040180806020018281038252601a8152602001807f536166654d6174683a206469766973696f6e206279207a65726f00000000000081525060200191505060405180910390fd5b600082848115156122ca57fe5b0490508091505092915050565b6000600360009054906101000a900473ffffffffffffffffffffffffffffffffffffffff16905090565b60008073ffffffffffffffffffffffffffffffffffffffff168273ffffffffffffffffffffffffffffffffffffffff16141515156123cd576040517f08c379a00000000000000000000000000000000000000000000000000000000081526004018080602001828103825260238152602001807f45524332303a20496e76616c696420666565207265636569766572206164647281526020017f657373000000000000000000000000000000000000000000000000000000000081525060400191505060405180910390fd5b81600360006101000a81548173ffffffffffffffffffffffffffffffffffffffff021916908373ffffffffffffffffffffffffffffffffffffffff16021790555060019050919050565b600073ffffffffffffffffffffffffffffffffffffffff168373ffffffffffffffffffffffffffffffffffffffff16141515156124e2576040517f08c379a000000000000000000000000000000000000000000000000000000000815260040180806020018281038252602c8152602001807f45524332303a20496e76616c696420617070726f76652066726f6d207468652081526020017f7a65726f2061646472657373000000000000000000000000000000000000000081525060400191505060405180910390fd5b600073ffffffffffffffffffffffffffffffffffffffff168273ffffffffffffffffffffffffffffffffffffffff16141515156125ad576040517f08c379a000000000000000000000000000000000000000000000000000000000815260040180806020018281038252602a8152602001807f45524332303a20496e76616c696420617070726f766520746f20746865207a6581526020017f726f20616464726573730000000000000000000000000000000000000000000081525060400191505060405180910390fd5b80600160008573ffffffffffffffffffffffffffffffffffffffff1673ffffffffffffffffffffffffffffffffffffffff16815260200190815260200160002060008473ffffffffffffffffffffffffffffffffffffffff1673ffffffffffffffffffffffffffffffffffffffff168152602001908152602001600020819055508173ffffffffffffffffffffffffffffffffffffffff168373ffffffffffffffffffffffffffffffffffffffff167f8c5be1e5ebec7d5bd14f71427d1e84f3dd0314c0f7b2291e5b200ac8c7c3b925836040518082815260200191505060405180910390a3505050565b600073ffffffffffffffffffffffffffffffffffffffff163373ffffffffffffffffffffffffffffffffffffffff1614151515612763576040517f08c379a000000000000000000000000000000000000000000000000000000000815260040180806020018281038252602d8152602001807f45524332303a20496e76616c6964207472616e736665722066726f6d2074686581526020017f207a65726f20616464726573730000000000000000000000000000000000000081525060400191505060405180910390fd5b600073ffffffffffffffffffffffffffffffffffffffff168273ffffffffffffffffffffffffffffffffffffffff161415151561282e576040517f08c379a000000000000000000000000000000000000000000000000000000000815260040180806020018281038252602b8152602001807f45524332303a20496e76616c6964207472616e7366657220746f20746865207a81526020017f65726f206164647265737300000000000000000000000000000000000000000081525060400191505060405180910390fd5b6000811115156128cc576040517f08c379a00000000000000000000000000000000000000000000000000000000081526004018080602001828103825260218152602001807f45524332303a20496e76616c696420616d6f756e7420746f207472616e73666581526020017f720000000000000000000000000000000000000000000000000000000000000081525060400191505060405180910390fd5b60006128d782611612565b90506128ec8183612d5d90919063ffffffff16565b6000808673ffffffffffffffffffffffffffffffffffffffff1673ffffffffffffffffffffffffffffffffffffffff16815260200190815260200160002054101515156129c7576040517f08c379a00000000000000000000000000000000000000000000000000000000081526004018080602001828103825260258152602001807f45524332303a2047474320546f6b656e2066756e6420697320696e737566666981526020017f6369656e7400000000000000000000000000000000000000000000000000000081525060400191505060405180910390fd5b612a2a6129dd8284612d5d90919063ffffffff16565b6000808773ffffffffffffffffffffffffffffffffffffffff1673ffffffffffffffffffffffffffffffffffffffff16815260200190815260200160002054612cd290919063ffffffff16565b6000808673ffffffffffffffffffffffffffffffffffffffff1673ffffffffffffffffffffffffffffffffffffffff16815260200190815260200160002081905550612abd826000808673ffffffffffffffffffffffffffffffffffffffff1673ffffffffffffffffffffffffffffffffffffffff16815260200190815260200160002054612d5d90919063ffffffff16565b6000808573ffffffffffffffffffffffffffffffffffffffff1673ffffffffffffffffffffffffffffffffffffffff168152602001908152602001600020819055508273ffffffffffffffffffffffffffffffffffffffff168473ffffffffffffffffffffffffffffffffffffffff167fddf252ad1be2c89b69c2b068fc378daa952ba7f163c4a11628f55a4df523b3ef846040518082815260200191505060405180910390a36000811115612ccc57612be081600080600360009054906101000a900473ffffffffffffffffffffffffffffffffffffffff1673ffffffffffffffffffffffffffffffffffffffff1673ffffffffffffffffffffffffffffffffffffffff16815260200190815260200160002054612d5d90919063ffffffff16565b600080600360009054906101000a900473ffffffffffffffffffffffffffffffffffffffff1673ffffffffffffffffffffffffffffffffffffffff1673ffffffffffffffffffffffffffffffffffffffff16815260200190815260200160002081905550600360009054906101000a900473ffffffffffffffffffffffffffffffffffffffff1673ffffffffffffffffffffffffffffffffffffffff168473ffffffffffffffffffffffffffffffffffffffff167fddf252ad1be2c89b69c2b068fc378daa952ba7f163c4a11628f55a4df523b3ef836040518082815260200191505060405180910390a35b50505050565b6000828211151515612d4c576040517f08c379a000000000000000000000000000000000000000000000000000000000815260040180806020018281038252601e8152602001807f536166654d6174683a207375627472616374696f6e206f766572666c6f77000081525060200191505060405180910390fd5b600082840390508091505092915050565b6000808284019050838110151515612ddd576040517f08c379a000000000000000000000000000000000000000000000000000000000815260040180806020018281038252601b8152602001807f536166654d6174683a206164646974696f6e206f766572666c6f77000000000081525060200191505060405180910390fd5b8091505092915050565b612df18282611d77565b1515612e8b576040517f08c379a00000000000000000000000000000000000000000000000000000000081526004018080602001828103825260218152602001807f526f6c65733a206163636f756e7420646f6573206e6f74206861766520726f6c81526020017f650000000000000000000000000000000000000000000000000000000000000081525060400191505060405180910390fd5b60008260000160008373ffffffffffffffffffffffffffffffffffffffff1673ffffffffffffffffffffffffffffffffffffffff16815260200190815260200160002060006101000a81548160ff0219169083151502179055505050565b612ef38282611d77565b151515612f68576040517f08c379a000000000000000000000000000000000000000000000000000000000815260040180806020018281038252601f8152602001807f526f6c65733a206163636f756e7420616c72656164792068617320726f6c650081525060200191505060405180910390fd5b60018260000160008373ffffffffffffffffffffffffffffffffffffffff1673ffffffffffffffffffffffffffffffffffffffff16815260200190815260200160002060006101000a81548160ff021916908315150217905550505056fea165627a7a72305820a53268da44c27e1e5c5ef279c51af2898d01745f8b82de09cab8a3ece1da983b0029",
  "source": "pragma solidity 0.5.0;\n\nimport \"./ERC20/ERC20.sol\";\nimport \"./ERC20/ERC20Mintable.sol\";\nimport \"./ERC20/ERC20Burnable.sol\";\nimport \"./ERC20/ERC20Detailed.sol\";\nimport \"./ERC20/ERC20Pausable.sol\";\nimport \"./access/roles/PauserRole.sol\";\nimport \"./access/roles/MinterRole.sol\";\nimport \"./ERC20/ERC20Chargeable.sol\";\n\n// contract GGCToken is ERC20, ERC20Mintable, ERC20Burnable, ERC20Pausable, ERC20Detailed, ERC20Chargeable{\ncontract FFCToken is ERC20, ERC20Mintable, ERC20Burnable, ERC20Pausable, ERC20Detailed, ERC20Chargeable{\n    constructor() public ERC20Detailed(\"FreeFuelCoin\", \"FFC\", 18){\n    }\n}",
  "sourcePath": "/home/papan/workspace/hyperledger/freefuel/fuel-eth-smartcontract/contracts/FFCToken.sol",
  "compiler": {
    "name": "solc",
    "version": "0.5.0+commit.1d4f565a.Emscripten.clang"
  },
  "schemaVersion": "3.0.19",
  "updatedAt": "2019-11-16T08:22:26.497Z",
  "networkType": "ethereum",
  "devdoc": {
    "methods": {
      "allowance(address,address)": {
        "details": "See `IERC20.allowance`."
      },
      "balanceOf(address)": {
        "details": "See `IERC20.balanceOf`."
      },
      "burn(uint256)": {
        "details": "Destoys `amount` tokens from the caller.     * See `ERC20._burn`."
      },
      "burnFrom(address,uint256)": {
        "details": "See `ERC20._burnFrom`."
      },
      "computeTxFee(uint256)": {
        "details": "Computes the actual tx fee for front-end use."
      },
      "decimals()": {
        "details": "Returns the number of decimals used to get its user representation. For example, if `decimals` equals `2`, a balance of `505` tokens should be displayed to a user as `5,05` (`505 / 10 ** 2`).     * Tokens usually opt for a value of 18, imitating the relationship between Ether and Wei.     * > Note that this information is only used for _display_ purposes: it in no way affects any of the arithmetic of the contract, including `IERC20.balanceOf` and `IERC20.transfer`."
      },
      "getFee()": {
        "details": "Transaction fee rate is available to public."
      },
      "getFeeReceiver()": {
        "details": "See `ERC20._getFeeReceiver`.     * Requirements:     * - the caller must have the `MinterRole`."
      },
      "mint(address,uint256)": {
        "details": "See `ERC20._mint`.     * Requirements:     * - the caller must have the `MinterRole`."
      },
      "name()": {
        "details": "Returns the name of the token."
      },
      "pause()": {
        "details": "Called by a pauser to pause, triggers stopped state."
      },
      "paused()": {
        "details": "Returns true if the contract is paused, and false otherwise."
      },
      "setFee(uint256)": {
        "details": "See `ERC20._setFee`.     * Requirements:     * - the caller must have the `MinterRole`."
      },
      "setFeeReceiver(address)": {
        "details": "See `ERC20._setFeeReceiver`.     * Requirements:     * - the caller must have the `MinterRole`."
      },
      "symbol()": {
        "details": "Returns the symbol of the token, usually a shorter version of the name."
      },
      "totalSupply()": {
        "details": "See `IERC20.totalSupply`."
      },
      "unpause()": {
        "details": "Called by a pauser to unpause, returns to normal state."
      }
    }
  },
  "userdoc": {
    "methods": {}
  }
}