{
  "contractName": "ERC20",
  "abi": [
    {
      "anonymous": false,
      "inputs": [
        {
          "indexed": true,
          "name": "from",
          "type": "address"
        },
        {
          "indexed": true,
          "name": "to",
          "type": "address"
        },
        {
          "indexed": false,
          "name": "value",
          "type": "uint256"
        }
      ],
      "name": "Transfer",
      "type": "event"
    },
    {
      "anonymous": false,
      "inputs": [
        {
          "indexed": true,
          "name": "owner",
          "type": "address"
        },
        {
          "indexed": true,
          "name": "spender",
          "type": "address"
        },
        {
          "indexed": false,
          "name": "value",
          "type": "uint256"
        }
      ],
      "name": "Approval",
      "type": "event"
    },
    {
      "constant": true,
      "inputs": [],
      "name": "totalSupply",
      "outputs": [
        {
          "name": "",
          "type": "uint256"
        }
      ],
      "payable": false,
      "stateMutability": "view",
      "type": "function"
    },
    {
      "constant": true,
      "inputs": [
        {
          "name": "account",
          "type": "address"
        }
      ],
      "name": "balanceOf",
      "outputs": [
        {
          "name": "",
          "type": "uint256"
        }
      ],
      "payable": false,
      "stateMutability": "view",
      "type": "function"
    },
    {
      "constant": false,
      "inputs": [
        {
          "name": "recipient",
          "type": "address"
        },
        {
          "name": "amount",
          "type": "uint256"
        }
      ],
      "name": "transfer",
      "outputs": [
        {
          "name": "",
          "type": "bool"
        }
      ],
      "payable": false,
      "stateMutability": "nonpayable",
      "type": "function"
    },
    {
      "constant": true,
      "inputs": [
        {
          "name": "owner",
          "type": "address"
        },
        {
          "name": "spender",
          "type": "address"
        }
      ],
      "name": "allowance",
      "outputs": [
        {
          "name": "",
          "type": "uint256"
        }
      ],
      "payable": false,
      "stateMutability": "view",
      "type": "function"
    },
    {
      "constant": false,
      "inputs": [
        {
          "name": "spender",
          "type": "address"
        },
        {
          "name": "value",
          "type": "uint256"
        }
      ],
      "name": "approve",
      "outputs": [
        {
          "name": "",
          "type": "bool"
        }
      ],
      "payable": false,
      "stateMutability": "nonpayable",
      "type": "function"
    },
    {
      "constant": false,
      "inputs": [
        {
          "name": "sender",
          "type": "address"
        },
        {
          "name": "recipient",
          "type": "address"
        },
        {
          "name": "amount",
          "type": "uint256"
        }
      ],
      "name": "transferFrom",
      "outputs": [
        {
          "name": "",
          "type": "bool"
        }
      ],
      "payable": false,
      "stateMutability": "nonpayable",
      "type": "function"
    },
    {
      "constant": false,
      "inputs": [
        {
          "name": "spender",
          "type": "address"
        },
        {
          "name": "addedValue",
          "type": "uint256"
        }
      ],
      "name": "increaseAllowance",
      "outputs": [
        {
          "name": "",
          "type": "bool"
        }
      ],
      "payable": false,
      "stateMutability": "nonpayable",
      "type": "function"
    },
    {
      "constant": false,
      "inputs": [
        {
          "name": "spender",
          "type": "address"
        },
        {
          "name": "subtractedValue",
          "type": "uint256"
        }
      ],
      "name": "decreaseAllowance",
      "outputs": [
        {
          "name": "",
          "type": "bool"
        }
      ],
      "payable": false,
      "stateMutability": "nonpayable",
      "type": "function"
    },
    {
      "constant": true,
      "inputs": [],
      "name": "getFee",
      "outputs": [
        {
          "name": "",
          "type": "uint256"
        }
      ],
      "payable": false,
      "stateMutability": "view",
      "type": "function"
    },
    {
      "constant": true,
      "inputs": [
        {
          "name": "amount",
          "type": "uint256"
        }
      ],
      "name": "computeTxFee",
      "outputs": [
        {
          "name": "",
          "type": "uint256"
        }
      ],
      "payable": false,
      "stateMutability": "view",
      "type": "function"
    }
  ],
  "bytecode": "0x60806040527332e3740e7f63333f4f9da21673d04f0f21f840be600360006101000a81548173ffffffffffffffffffffffffffffffffffffffff021916908373ffffffffffffffffffffffffffffffffffffffff16021790555065b5e620f48000600455670de0b6b3a764000060055534801561007b57600080fd5b5061135f8061008b6000396000f3fe6080604052600436106100a4576000357c0100000000000000000000000000000000000000000000000000000000900463ffffffff168063095ea7b3146100a957806318160ddd1461011c57806323b872dd1461014757806339509351146101da57806370a082311461024d578063a457c2d7146102b2578063a9059cbb14610325578063c2eaaeb314610398578063ced72f87146103e7578063dd62ed3e14610412575b600080fd5b3480156100b557600080fd5b50610102600480360360408110156100cc57600080fd5b81019080803573ffffffffffffffffffffffffffffffffffffffff16906020019092919080359060200190929190505050610497565b604051808215151515815260200191505060405180910390f35b34801561012857600080fd5b506101316104ae565b6040518082815260200191505060405180910390f35b34801561015357600080fd5b506101c06004803603606081101561016a57600080fd5b81019080803573ffffffffffffffffffffffffffffffffffffffff169060200190929190803573ffffffffffffffffffffffffffffffffffffffff169060200190929190803590602001909291905050506104b8565b604051808215151515815260200191505060405180910390f35b3480156101e657600080fd5b50610233600480360360408110156101fd57600080fd5b81019080803573ffffffffffffffffffffffffffffffffffffffff16906020019092919080359060200190929190505050610569565b604051808215151515815260200191505060405180910390f35b34801561025957600080fd5b5061029c6004803603602081101561027057600080fd5b81019080803573ffffffffffffffffffffffffffffffffffffffff16906020019092919050505061060e565b6040518082815260200191505060405180910390f35b3480156102be57600080fd5b5061030b600480360360408110156102d557600080fd5b81019080803573ffffffffffffffffffffffffffffffffffffffff16906020019092919080359060200190929190505050610656565b604051808215151515815260200191505060405180910390f35b34801561033157600080fd5b5061037e6004803603604081101561034857600080fd5b81019080803573ffffffffffffffffffffffffffffffffffffffff169060200190929190803590602001909291905050506106fb565b604051808215151515815260200191505060405180910390f35b3480156103a457600080fd5b506103d1600480360360208110156103bb57600080fd5b8101908080359060200190929190505050610712565b6040518082815260200191505060405180910390f35b3480156103f357600080fd5b506103fc610772565b6040518082815260200191505060405180910390f35b34801561041e57600080fd5b506104816004803603604081101561043557600080fd5b81019080803573ffffffffffffffffffffffffffffffffffffffff169060200190929190803573ffffffffffffffffffffffffffffffffffffffff16906020019092919050505061077c565b6040518082815260200191505060405180910390f35b60006104a4338484610803565b6001905092915050565b6000600254905090565b60006104c5848484610a84565b61055e843361055985600160008a73ffffffffffffffffffffffffffffffffffffffff1673ffffffffffffffffffffffffffffffffffffffff16815260200190815260200160002060003373ffffffffffffffffffffffffffffffffffffffff1673ffffffffffffffffffffffffffffffffffffffff168152602001908152602001600020546110be90919063ffffffff16565b610803565b600190509392505050565b600061060433846105ff85600160003373ffffffffffffffffffffffffffffffffffffffff1673ffffffffffffffffffffffffffffffffffffffff16815260200190815260200160002060008973ffffffffffffffffffffffffffffffffffffffff1673ffffffffffffffffffffffffffffffffffffffff1681526020019081526020016000205461114990919063ffffffff16565b610803565b6001905092915050565b60008060008373ffffffffffffffffffffffffffffffffffffffff1673ffffffffffffffffffffffffffffffffffffffff168152602001908152602001600020549050919050565b60006106f133846106ec85600160003373ffffffffffffffffffffffffffffffffffffffff1673ffffffffffffffffffffffffffffffffffffffff16815260200190815260200160002060008973ffffffffffffffffffffffffffffffffffffffff1673ffffffffffffffffffffffffffffffffffffffff168152602001908152602001600020546110be90919063ffffffff16565b610803565b6001905092915050565b6000610708338484610a84565b6001905092915050565b6000808211801561072557506000600454115b801561073357506000600554115b1561076857610761600554610753600454856111d390919063ffffffff16565b6112a090919063ffffffff16565b905061076d565b600090505b919050565b6000600454905090565b6000600160008473ffffffffffffffffffffffffffffffffffffffff1673ffffffffffffffffffffffffffffffffffffffff16815260200190815260200160002060008373ffffffffffffffffffffffffffffffffffffffff1673ffffffffffffffffffffffffffffffffffffffff16815260200190815260200160002054905092915050565b600073ffffffffffffffffffffffffffffffffffffffff168373ffffffffffffffffffffffffffffffffffffffff16141515156108ce576040517f08c379a000000000000000000000000000000000000000000000000000000000815260040180806020018281038252602c8152602001807f45524332303a20496e76616c696420617070726f76652066726f6d207468652081526020017f7a65726f2061646472657373000000000000000000000000000000000000000081525060400191505060405180910390fd5b600073ffffffffffffffffffffffffffffffffffffffff168273ffffffffffffffffffffffffffffffffffffffff1614151515610999576040517f08c379a000000000000000000000000000000000000000000000000000000000815260040180806020018281038252602a8152602001807f45524332303a20496e76616c696420617070726f766520746f20746865207a6581526020017f726f20616464726573730000000000000000000000000000000000000000000081525060400191505060405180910390fd5b80600160008573ffffffffffffffffffffffffffffffffffffffff1673ffffffffffffffffffffffffffffffffffffffff16815260200190815260200160002060008473ffffffffffffffffffffffffffffffffffffffff1673ffffffffffffffffffffffffffffffffffffffff168152602001908152602001600020819055508173ffffffffffffffffffffffffffffffffffffffff168373ffffffffffffffffffffffffffffffffffffffff167f8c5be1e5ebec7d5bd14f71427d1e84f3dd0314c0f7b2291e5b200ac8c7c3b925836040518082815260200191505060405180910390a3505050565b600073ffffffffffffffffffffffffffffffffffffffff163373ffffffffffffffffffffffffffffffffffffffff1614151515610b4f576040517f08c379a000000000000000000000000000000000000000000000000000000000815260040180806020018281038252602d8152602001807f45524332303a20496e76616c6964207472616e736665722066726f6d2074686581526020017f207a65726f20616464726573730000000000000000000000000000000000000081525060400191505060405180910390fd5b600073ffffffffffffffffffffffffffffffffffffffff168273ffffffffffffffffffffffffffffffffffffffff1614151515610c1a576040517f08c379a000000000000000000000000000000000000000000000000000000000815260040180806020018281038252602b8152602001807f45524332303a20496e76616c6964207472616e7366657220746f20746865207a81526020017f65726f206164647265737300000000000000000000000000000000000000000081525060400191505060405180910390fd5b600081111515610cb8576040517f08c379a00000000000000000000000000000000000000000000000000000000081526004018080602001828103825260218152602001807f45524332303a20496e76616c696420616d6f756e7420746f207472616e73666581526020017f720000000000000000000000000000000000000000000000000000000000000081525060400191505060405180910390fd5b6000610cc382610712565b9050610cd8818361114990919063ffffffff16565b6000808673ffffffffffffffffffffffffffffffffffffffff1673ffffffffffffffffffffffffffffffffffffffff1681526020019081526020016000205410151515610db3576040517f08c379a00000000000000000000000000000000000000000000000000000000081526004018080602001828103825260258152602001807f45524332303a2047474320546f6b656e2066756e6420697320696e737566666981526020017f6369656e7400000000000000000000000000000000000000000000000000000081525060400191505060405180910390fd5b610e16610dc9828461114990919063ffffffff16565b6000808773ffffffffffffffffffffffffffffffffffffffff1673ffffffffffffffffffffffffffffffffffffffff168152602001908152602001600020546110be90919063ffffffff16565b6000808673ffffffffffffffffffffffffffffffffffffffff1673ffffffffffffffffffffffffffffffffffffffff16815260200190815260200160002081905550610ea9826000808673ffffffffffffffffffffffffffffffffffffffff1673ffffffffffffffffffffffffffffffffffffffff1681526020019081526020016000205461114990919063ffffffff16565b6000808573ffffffffffffffffffffffffffffffffffffffff1673ffffffffffffffffffffffffffffffffffffffff168152602001908152602001600020819055508273ffffffffffffffffffffffffffffffffffffffff168473ffffffffffffffffffffffffffffffffffffffff167fddf252ad1be2c89b69c2b068fc378daa952ba7f163c4a11628f55a4df523b3ef846040518082815260200191505060405180910390a360008111156110b857610fcc81600080600360009054906101000a900473ffffffffffffffffffffffffffffffffffffffff1673ffffffffffffffffffffffffffffffffffffffff1673ffffffffffffffffffffffffffffffffffffffff1681526020019081526020016000205461114990919063ffffffff16565b600080600360009054906101000a900473ffffffffffffffffffffffffffffffffffffffff1673ffffffffffffffffffffffffffffffffffffffff1673ffffffffffffffffffffffffffffffffffffffff16815260200190815260200160002081905550600360009054906101000a900473ffffffffffffffffffffffffffffffffffffffff1673ffffffffffffffffffffffffffffffffffffffff168473ffffffffffffffffffffffffffffffffffffffff167fddf252ad1be2c89b69c2b068fc378daa952ba7f163c4a11628f55a4df523b3ef836040518082815260200191505060405180910390a35b50505050565b6000828211151515611138576040517f08c379a000000000000000000000000000000000000000000000000000000000815260040180806020018281038252601e8152602001807f536166654d6174683a207375627472616374696f6e206f766572666c6f77000081525060200191505060405180910390fd5b600082840390508091505092915050565b60008082840190508381101515156111c9576040517f08c379a000000000000000000000000000000000000000000000000000000000815260040180806020018281038252601b8152602001807f536166654d6174683a206164646974696f6e206f766572666c6f77000000000081525060200191505060405180910390fd5b8091505092915050565b6000808314156111e6576000905061129a565b600082840290508284828115156111f957fe5b04141515611295576040517f08c379a00000000000000000000000000000000000000000000000000000000081526004018080602001828103825260218152602001807f536166654d6174683a206d756c7469706c69636174696f6e206f766572666c6f81526020017f770000000000000000000000000000000000000000000000000000000000000081525060400191505060405180910390fd5b809150505b92915050565b60008082111515611319576040517f08c379a000000000000000000000000000000000000000000000000000000000815260040180806020018281038252601a8152602001807f536166654d6174683a206469766973696f6e206279207a65726f00000000000081525060200191505060405180910390fd5b6000828481151561132657fe5b049050809150509291505056fea165627a7a723058207214d868bcdb4679a4cb64978c77da0c47846bfac26d065e7c0345da5a1398fd0029",
  "source": "pragma solidity ^0.5.0;\n\nimport \"./IERC20.sol\";\nimport \"../math/SafeMath.sol\";\n\n/**\n * @dev Implementation of the `IERC20` interface.\n *\n * This implementation is agnostic to the way tokens are created. This means\n * that a supply mechanism has to be added in a derived contract using `_mint`.\n * For a generic mechanism see `ERC20Mintable`.\n *\n * *For a detailed writeup see our guide [How to implement supply\n * mechanisms](https://forum.zeppelin.solutions/t/how-to-implement-erc20-supply-mechanisms/226).*\n *\n * We have followed general OpenZeppelin guidelines: functions revert instead\n * of returning `false` on failure. This behavior is nonetheless conventional\n * and does not conflict with the expectations of ERC20 applications.\n *\n * Additionally, an `Approval` event is emitted on calls to `transferFrom`.\n * This allows applications to reconstruct the allowance for all accounts just\n * by listening to said events. Other implementations of the EIP may not emit\n * these events, as it isn't required by the specification.\n *\n * Finally, the non-standard `decreaseAllowance` and `increaseAllowance`\n * functions have been added to mitigate the well-known issues around setting\n * allowances. See `IERC20.approve`.\n */\ncontract ERC20 is IERC20 {\n    using SafeMath for uint256;\n\n    mapping (address => uint256) private _balances;\n\n    mapping (address => mapping (address => uint256)) private _allowances;\n\n    uint256 private _totalSupply;\n\n    address private feeReceiver = 0x32E3740E7F63333f4F9da21673d04F0f21F840be;\n    uint256 private fee = 200000000000000;//equivalent to 0.00020 or 0.02%\n    uint256 private feeDecimals = 1000000000000000000;//1 ether\n\n    /**\n     * @dev See `IERC20.totalSupply`.\n     */\n    function totalSupply() public view returns (uint256) {\n        return _totalSupply;\n    }\n\n    /**\n     * @dev See `IERC20.balanceOf`.\n     */\n    function balanceOf(address account) public view returns (uint256) {\n        return _balances[account];\n    }\n\n    /**\n     * @dev See `IERC20.transfer`.\n     *\n     * Requirements:\n     *\n     * - `recipient` cannot be the zero address.\n     * - the caller must have a balance of at least `amount`.\n     */\n    function transfer(address recipient, uint256 amount) public returns (bool) {\n        _transfer(msg.sender, recipient, amount);\n        return true;\n    }\n\n    /**\n     * @dev See `IERC20.allowance`.\n     */\n    function allowance(address owner, address spender) public view returns (uint256) {\n        return _allowances[owner][spender];\n    }\n\n    /**\n     * @dev See `IERC20.approve`.\n     *\n     * Requirements:\n     *\n     * - `spender` cannot be the zero address.\n     */\n    function approve(address spender, uint256 value) public returns (bool) {\n        _approve(msg.sender, spender, value);\n        return true;\n    }\n\n    /**\n     * @dev See `IERC20.transferFrom`.\n     *\n     * Emits an `Approval` event indicating the updated allowance. This is not\n     * required by the EIP. See the note at the beginning of `ERC20`;\n     *\n     * Requirements:\n     * - `sender` and `recipient` cannot be the zero address.\n     * - `sender` must have a balance of at least `value`.\n     * - the caller must have allowance for `sender`'s tokens of at least\n     * `amount`.\n     */\n    function transferFrom(address sender, address recipient, uint256 amount) public returns (bool) {\n        _transfer(sender, recipient, amount);\n        _approve(sender, msg.sender, _allowances[sender][msg.sender].sub(amount));\n        return true;\n    }\n\n    /**\n     * @dev Atomically increases the allowance granted to `spender` by the caller.\n     *\n     * This is an alternative to `approve` that can be used as a mitigation for\n     * problems described in `IERC20.approve`.\n     *\n     * Emits an `Approval` event indicating the updated allowance.\n     *\n     * Requirements:\n     *\n     * - `spender` cannot be the zero address.\n     */\n    function increaseAllowance(address spender, uint256 addedValue) public returns (bool) {\n        _approve(msg.sender, spender, _allowances[msg.sender][spender].add(addedValue));\n        return true;\n    }\n\n    /**\n     * @dev Atomically decreases the allowance granted to `spender` by the caller.\n     *\n     * This is an alternative to `approve` that can be used as a mitigation for\n     * problems described in `IERC20.approve`.\n     *\n     * Emits an `Approval` event indicating the updated allowance.\n     *\n     * Requirements:\n     *\n     * - `spender` cannot be the zero address.\n     * - `spender` must have allowance for the caller of at least\n     * `subtractedValue`.\n     */\n    function decreaseAllowance(address spender, uint256 subtractedValue) public returns (bool) {\n        _approve(msg.sender, spender, _allowances[msg.sender][spender].sub(subtractedValue));\n        return true;\n    }\n\n    /**\n     * @dev Moves tokens `amount` from `sender` to `recipient`.\n     *\n     * This is internal function is equivalent to `transfer`, and can be used to\n     * e.g. implement automatic token fees, slashing mechanisms, etc.\n     *\n     * Emits a `Transfer` event.\n     *\n     * Requirements:\n     *\n     * - `sender` cannot be the zero address.\n     * - `recipient` cannot be the zero address.\n     * - `sender` must have a balance of at least `amount`.\n     */\n    function _transfer(address sender, address recipient, uint256 amount) internal {\n        require(msg.sender != address(0), \"ERC20: Invalid transfer from the zero address\");\n        require(recipient != address(0), \"ERC20: Invalid transfer to the zero address\");\n        require(amount > 0, \"ERC20: Invalid amount to transfer\");\n\n        uint256 txFee = computeTxFee(amount);\n        require(_balances[sender] >= amount.add(txFee), \"ERC20: GGC Token fund is insufficient\");\n\n        _balances[sender] = _balances[sender].sub(amount.add(txFee));\n        _balances[recipient] = _balances[recipient].add(amount);\n        emit Transfer(sender, recipient, amount);\n\n        if(txFee > 0){\n            _balances[feeReceiver] = _balances[feeReceiver].add(txFee);\n            emit Transfer(sender, feeReceiver, txFee);\n        }\n    }\n\n    /** @dev Creates `amount` tokens and assigns them to `account`, increasing\n     * the total supply.\n     *\n     * Emits a `Transfer` event with `from` set to the zero address.\n     *\n     * Requirements\n     *\n     * - `to` cannot be the zero address.\n     */\n    function _mint(address account, uint256 amount) internal {\n        require(account != address(0), \"ERC20: mint to the zero address\");\n\n        _totalSupply = _totalSupply.add(amount);\n        _balances[account] = _balances[account].add(amount);\n        emit Transfer(address(0), account, amount);\n    }\n\n     /**\n     * @dev Destoys `amount` tokens from `account`, reducing the\n     * total supply.\n     *\n     * Emits a `Transfer` event with `to` set to the zero address.\n     *\n     * Requirements\n     *\n     * - `account` cannot be the zero address.\n     * - `account` must have at least `amount` tokens.\n     */\n    function _burn(address account, uint256 value) internal {\n        require(account != address(0), \"ERC20: burn from the zero address\");\n\n        _totalSupply = _totalSupply.sub(value);\n        _balances[account] = _balances[account].sub(value);\n        emit Transfer(account, address(0), value);\n    }\n\n    /**\n     * @dev Sets `amount` as the allowance of `spender` over the `owner`s tokens.\n     *\n     * This is internal function is equivalent to `approve`, and can be used to\n     * e.g. set automatic allowances for certain subsystems, etc.\n     *\n     * Emits an `Approval` event.\n     *\n     * Requirements:\n     *\n     * - `owner` cannot be the zero address.\n     * - `spender` cannot be the zero address.\n     */\n    function _approve(address owner, address spender, uint256 value) internal {\n        require(owner != address(0), \"ERC20: Invalid approve from the zero address\");\n        require(spender != address(0), \"ERC20: Invalid approve to the zero address\");\n\n        _allowances[owner][spender] = value;\n        emit Approval(owner, spender, value);\n    }\n\n    /**\n     * @dev Destoys `amount` tokens from `account`.`amount` is then deducted\n     * from the caller's allowance.\n     *\n     * See `_burn` and `_approve`.\n     */\n    function _burnFrom(address account, uint256 amount) internal {\n        _burn(account, amount);\n        _approve(account, msg.sender, _allowances[account][msg.sender].sub(amount));\n    }\n\n    /**\n     * @dev Update the `transfer` transaction fee\n     * _fee and _feeDecimals are in wei unit\n     */\n    function _setFee(uint256 _fee) internal returns(bool) {\n        fee = _fee;\n        return true;\n    }\n\n    /**\n     * @dev Transaction fee rate is available to public.\n     */\n    function getFee() public view returns(uint256){\n        return fee;\n    }\n\n    /**\n     * @dev Assigns new fee receiver.\n     * The fee receiver will collect all fees in every transaction as long as tx fee collection is enabled.\n     */\n    function _setFeeReceiver(address _feeReceiver) internal returns(bool) {\n        require(_feeReceiver != address(0), \"ERC20: Invalid fee receiver address\");\n        feeReceiver = _feeReceiver;\n        return true;\n    }\n\n    function _getFeeReceiver() internal view returns(address){\n        return feeReceiver;\n    }\n\n    /**\n     * @dev Computes the actual tx fee for front-end use.\n     */\n    function computeTxFee(uint256 amount) public view returns(uint256){\n        if(amount > 0 && fee > 0 && feeDecimals > 0){\n            return amount.mul(fee).div(feeDecimals);\n        }\n        return 0;\n    }\n}\n",
  "sourcePath": "/home/papan/workspace/hyperledger/freefuel/fuel-eth-smartcontract/contracts/ERC20/ERC20.sol",
  "compiler": {
    "name": "solc",
    "version": "0.5.0+commit.1d4f565a.Emscripten.clang"
  },
  "schemaVersion": "3.0.19",
  "updatedAt": "2019-11-16T08:19:54.912Z",
  "devdoc": {
    "details": "Implementation of the `IERC20` interface. * This implementation is agnostic to the way tokens are created. This means that a supply mechanism has to be added in a derived contract using `_mint`. For a generic mechanism see `ERC20Mintable`. * *For a detailed writeup see our guide [How to implement supply mechanisms](https://forum.zeppelin.solutions/t/how-to-implement-erc20-supply-mechanisms/226).* * We have followed general OpenZeppelin guidelines: functions revert instead of returning `false` on failure. This behavior is nonetheless conventional and does not conflict with the expectations of ERC20 applications. * Additionally, an `Approval` event is emitted on calls to `transferFrom`. This allows applications to reconstruct the allowance for all accounts just by listening to said events. Other implementations of the EIP may not emit these events, as it isn't required by the specification. * Finally, the non-standard `decreaseAllowance` and `increaseAllowance` functions have been added to mitigate the well-known issues around setting allowances. See `IERC20.approve`.",
    "methods": {
      "allowance(address,address)": {
        "details": "See `IERC20.allowance`."
      },
      "approve(address,uint256)": {
        "details": "See `IERC20.approve`.     * Requirements:     * - `spender` cannot be the zero address."
      },
      "balanceOf(address)": {
        "details": "See `IERC20.balanceOf`."
      },
      "computeTxFee(uint256)": {
        "details": "Computes the actual tx fee for front-end use."
      },
      "decreaseAllowance(address,uint256)": {
        "details": "Atomically decreases the allowance granted to `spender` by the caller.     * This is an alternative to `approve` that can be used as a mitigation for problems described in `IERC20.approve`.     * Emits an `Approval` event indicating the updated allowance.     * Requirements:     * - `spender` cannot be the zero address. - `spender` must have allowance for the caller of at least `subtractedValue`."
      },
      "getFee()": {
        "details": "Transaction fee rate is available to public."
      },
      "increaseAllowance(address,uint256)": {
        "details": "Atomically increases the allowance granted to `spender` by the caller.     * This is an alternative to `approve` that can be used as a mitigation for problems described in `IERC20.approve`.     * Emits an `Approval` event indicating the updated allowance.     * Requirements:     * - `spender` cannot be the zero address."
      },
      "totalSupply()": {
        "details": "See `IERC20.totalSupply`."
      },
      "transfer(address,uint256)": {
        "details": "See `IERC20.transfer`.     * Requirements:     * - `recipient` cannot be the zero address. - the caller must have a balance of at least `amount`."
      },
      "transferFrom(address,address,uint256)": {
        "details": "See `IERC20.transferFrom`.     * Emits an `Approval` event indicating the updated allowance. This is not required by the EIP. See the note at the beginning of `ERC20`;     * Requirements: - `sender` and `recipient` cannot be the zero address. - `sender` must have a balance of at least `value`. - the caller must have allowance for `sender`'s tokens of at least `amount`."
      }
    }
  },
  "userdoc": {
    "methods": {}
  }
}